{
  "contractName": "Dex",
  "abi": [
    {
      "inputs": [],
      "stateMutability": "nonpayable",
      "type": "constructor"
    },
    {
      "anonymous": false,
      "inputs": [
        {
          "indexed": false,
          "internalType": "uint256",
          "name": "tradeId",
          "type": "uint256"
        },
        {
          "indexed": false,
          "internalType": "bytes32",
          "name": "ticker",
          "type": "bytes32"
        },
        {
          "indexed": false,
          "internalType": "uint256",
          "name": "amount",
          "type": "uint256"
        },
        {
          "indexed": false,
          "internalType": "address",
          "name": "seller",
          "type": "address"
        },
        {
          "indexed": false,
          "internalType": "address",
          "name": "buyer",
          "type": "address"
        },
        {
          "indexed": false,
          "internalType": "uint256",
          "name": "price",
          "type": "uint256"
        },
        {
          "indexed": false,
          "internalType": "uint256",
          "name": "date",
          "type": "uint256"
        }
      ],
      "name": "NewTrade",
      "type": "event"
    },
    {
      "inputs": [],
      "name": "admin",
      "outputs": [
        {
          "internalType": "address",
          "name": "",
          "type": "address"
        }
      ],
      "stateMutability": "view",
      "type": "function",
      "constant": true
    },
    {
      "inputs": [],
      "name": "nextOrderId",
      "outputs": [
        {
          "internalType": "uint256",
          "name": "",
          "type": "uint256"
        }
      ],
      "stateMutability": "view",
      "type": "function",
      "constant": true
    },
    {
      "inputs": [],
      "name": "nextTradeId",
      "outputs": [
        {
          "internalType": "uint256",
          "name": "",
          "type": "uint256"
        }
      ],
      "stateMutability": "view",
      "type": "function",
      "constant": true
    },
    {
      "inputs": [
        {
          "internalType": "bytes32",
          "name": "",
          "type": "bytes32"
        },
        {
          "internalType": "uint256",
          "name": "",
          "type": "uint256"
        },
        {
          "internalType": "uint256",
          "name": "",
          "type": "uint256"
        }
      ],
      "name": "orderbook",
      "outputs": [
        {
          "internalType": "bytes32",
          "name": "ticker",
          "type": "bytes32"
        },
        {
          "internalType": "uint256",
          "name": "id",
          "type": "uint256"
        },
        {
          "internalType": "uint256",
          "name": "amount",
          "type": "uint256"
        },
        {
          "internalType": "uint256",
          "name": "price",
          "type": "uint256"
        },
        {
          "internalType": "uint256",
          "name": "filled",
          "type": "uint256"
        },
        {
          "internalType": "enum Dex.Side",
          "name": "side",
          "type": "uint8"
        },
        {
          "internalType": "uint256",
          "name": "date",
          "type": "uint256"
        },
        {
          "internalType": "address",
          "name": "owner",
          "type": "address"
        }
      ],
      "stateMutability": "view",
      "type": "function",
      "constant": true
    },
    {
      "inputs": [
        {
          "internalType": "uint256",
          "name": "",
          "type": "uint256"
        }
      ],
      "name": "tokenList",
      "outputs": [
        {
          "internalType": "bytes32",
          "name": "",
          "type": "bytes32"
        }
      ],
      "stateMutability": "view",
      "type": "function",
      "constant": true
    },
    {
      "inputs": [
        {
          "internalType": "bytes32",
          "name": "",
          "type": "bytes32"
        }
      ],
      "name": "tokens",
      "outputs": [
        {
          "internalType": "bytes32",
          "name": "ticker",
          "type": "bytes32"
        },
        {
          "internalType": "address",
          "name": "tokenAddress",
          "type": "address"
        }
      ],
      "stateMutability": "view",
      "type": "function",
      "constant": true
    },
    {
      "inputs": [
        {
          "internalType": "address",
          "name": "",
          "type": "address"
        },
        {
          "internalType": "bytes32",
          "name": "",
          "type": "bytes32"
        }
      ],
      "name": "traderBalances",
      "outputs": [
        {
          "internalType": "uint256",
          "name": "",
          "type": "uint256"
        }
      ],
      "stateMutability": "view",
      "type": "function",
      "constant": true
    },
    {
      "inputs": [
        {
          "internalType": "bytes32",
          "name": "_ticker",
          "type": "bytes32"
        },
        {
          "internalType": "enum Dex.Side",
          "name": "_side",
          "type": "uint8"
        }
      ],
      "name": "getOrders",
      "outputs": [
        {
          "components": [
            {
              "internalType": "bytes32",
              "name": "ticker",
              "type": "bytes32"
            },
            {
              "internalType": "uint256",
              "name": "id",
              "type": "uint256"
            },
            {
              "internalType": "uint256",
              "name": "amount",
              "type": "uint256"
            },
            {
              "internalType": "uint256",
              "name": "price",
              "type": "uint256"
            },
            {
              "internalType": "uint256",
              "name": "filled",
              "type": "uint256"
            },
            {
              "internalType": "enum Dex.Side",
              "name": "side",
              "type": "uint8"
            },
            {
              "internalType": "uint256",
              "name": "date",
              "type": "uint256"
            },
            {
              "internalType": "address",
              "name": "owner",
              "type": "address"
            }
          ],
          "internalType": "struct Dex.Order[]",
          "name": "",
          "type": "tuple[]"
        }
      ],
      "stateMutability": "view",
      "type": "function",
      "constant": true
    },
    {
      "inputs": [
        {
          "internalType": "bytes32",
          "name": "_ticker",
          "type": "bytes32"
        },
        {
          "internalType": "address",
          "name": "_tokenAddress",
          "type": "address"
        }
      ],
      "name": "addToken",
      "outputs": [],
      "stateMutability": "nonpayable",
      "type": "function"
    },
    {
      "inputs": [
        {
          "internalType": "bytes32",
          "name": "_ticker",
          "type": "bytes32"
        },
        {
          "internalType": "uint256",
          "name": "_amount",
          "type": "uint256"
        }
      ],
      "name": "deposit",
      "outputs": [],
      "stateMutability": "nonpayable",
      "type": "function"
    },
    {
      "inputs": [
        {
          "internalType": "bytes32",
          "name": "_ticker",
          "type": "bytes32"
        },
        {
          "internalType": "uint256",
          "name": "_amount",
          "type": "uint256"
        }
      ],
      "name": "withdraw",
      "outputs": [],
      "stateMutability": "nonpayable",
      "type": "function"
    },
    {
      "inputs": [
        {
          "internalType": "bytes32",
          "name": "_ticker",
          "type": "bytes32"
        },
        {
          "internalType": "uint256",
          "name": "_amount",
          "type": "uint256"
        },
        {
          "internalType": "uint256",
          "name": "_price",
          "type": "uint256"
        },
        {
          "internalType": "enum Dex.Side",
          "name": "_side",
          "type": "uint8"
        }
      ],
      "name": "createLimitOrder",
      "outputs": [],
      "stateMutability": "nonpayable",
      "type": "function"
    },
    {
      "inputs": [
        {
          "internalType": "bytes32",
          "name": "_ticker",
          "type": "bytes32"
        },
        {
          "internalType": "uint256",
          "name": "_amount",
          "type": "uint256"
        },
        {
          "internalType": "enum Dex.Side",
          "name": "_side",
          "type": "uint8"
        }
      ],
      "name": "createMarketOrder",
      "outputs": [],
      "stateMutability": "nonpayable",
      "type": "function"
    }
  ],
  "bytecode": "0x608060405234801561001057600080fd5b5033600260006101000a81548173ffffffffffffffffffffffffffffffffffffffff021916908373ffffffffffffffffffffffffffffffffffffffff160217905550613541806100616000396000f3fe608060405234801561001057600080fd5b50600436106100cf5760003560e01c8063813ad0831161008c5780639ead7222116100665780639ead722214610211578063d9c0c95014610241578063f85024021461025d578063f851a44014610294576100cf565b8063813ad083146101a6578063904194a3146101c45780639776aacf146101f5576100cf565b8063040cf020146100d45780631de26e16146100f05780632a58b3301461010c57806346e9658b1461012a57806372ce957e1461015a5780637f2c62461461018a575b600080fd5b6100ee60048036038101906100e99190612a95565b6102b2565b005b61010a60048036038101906101059190612a95565b61051a565b005b6101146106f1565b604051610121919061318b565b60405180910390f35b610144600480360381019061013f9190612a59565b6106f7565b6040516101519190612fc7565b60405180910390f35b610174600480360381019061016f919061298f565b6108cd565b604051610181919061318b565b60405180910390f35b6101a4600480360381019061019f9190612ad1565b6108f2565b005b6101ae611a6c565b6040516101bb919061318b565b60405180910390f35b6101de60048036038101906101d991906129f4565b611a72565b6040516101ec929190613004565b60405180910390f35b61020f600480360381019061020a9190612a1d565b611ab6565b005b61022b60048036038101906102269190612bd2565b611c04565b6040516102389190612fe9565b60405180910390f35b61025b60048036038101906102569190612b6f565b611c28565b005b61027760048036038101906102729190612b20565b612861565b60405161028b98979695949392919061302d565b60405180910390f35b61029c612900565b6040516102a99190612f4c565b60405180910390f35b81600073ffffffffffffffffffffffffffffffffffffffff1660008083815260200190815260200160002060010160009054906101000a900473ffffffffffffffffffffffffffffffffffffffff1673ffffffffffffffffffffffffffffffffffffffff161415610358576040517f08c379a000000000000000000000000000000000000000000000000000000000815260040161034f906130ab565b60405180910390fd5b81600360003373ffffffffffffffffffffffffffffffffffffffff1673ffffffffffffffffffffffffffffffffffffffff16815260200190815260200160002060008581526020019081526020016000205410156103eb576040517f08c379a00000000000000000000000000000000000000000000000000000000081526004016103e29061310b565b60405180910390fd5b60008084815260200190815260200160002060010160009054906101000a900473ffffffffffffffffffffffffffffffffffffffff1673ffffffffffffffffffffffffffffffffffffffff1663a9059cbb33846040518363ffffffff1660e01b815260040161045b929190612f9e565b602060405180830381600087803b15801561047557600080fd5b505af1158015610489573d6000803e3d6000fd5b505050506040513d601f19601f820116820180604052508101906104ad91906129cb565b5081600360003373ffffffffffffffffffffffffffffffffffffffff1673ffffffffffffffffffffffffffffffffffffffff1681526020019081526020016000206000858152602001908152602001600020600082825461050e919061330f565b92505081905550505050565b81600073ffffffffffffffffffffffffffffffffffffffff1660008083815260200190815260200160002060010160009054906101000a900473ffffffffffffffffffffffffffffffffffffffff1673ffffffffffffffffffffffffffffffffffffffff1614156105c0576040517f08c379a00000000000000000000000000000000000000000000000000000000081526004016105b7906130ab565b60405180910390fd5b60008084815260200190815260200160002060010160009054906101000a900473ffffffffffffffffffffffffffffffffffffffff1673ffffffffffffffffffffffffffffffffffffffff166323b872dd3330856040518463ffffffff1660e01b815260040161063293929190612f67565b602060405180830381600087803b15801561064c57600080fd5b505af1158015610660573d6000803e3d6000fd5b505050506040513d601f19601f8201168201806040525081019061068491906129cb565b5081600360003373ffffffffffffffffffffffffffffffffffffffff1673ffffffffffffffffffffffffffffffffffffffff168152602001908152602001600020600085815260200190815260200160002060008282546106e5919061325f565b92505081905550505050565b60055481565b6060600460008481526020019081526020016000206000836001811115610747577f4e487b7100000000000000000000000000000000000000000000000000000000600052602160045260246000fd5b8152602001908152602001600020805480602002602001604051908101604052809291908181526020016000905b828210156108c157838290600052602060002090600802016040518061010001604052908160008201548152602001600182015481526020016002820154815260200160038201548152602001600482015481526020016005820160009054906101000a900460ff166001811115610816577f4e487b7100000000000000000000000000000000000000000000000000000000600052602160045260246000fd5b600181111561084e577f4e487b7100000000000000000000000000000000000000000000000000000000600052602160045260246000fd5b8152602001600682015481526020016007820160009054906101000a900473ffffffffffffffffffffffffffffffffffffffff1673ffffffffffffffffffffffffffffffffffffffff1673ffffffffffffffffffffffffffffffffffffffff168152505081526020019060010190610775565b50505050905092915050565b6003602052816000526040600020602052806000526040600020600091509150505481565b827f4441490000000000000000000000000000000000000000000000000000000000811415610956576040517f08c379a000000000000000000000000000000000000000000000000000000000815260040161094d9061316b565b60405180910390fd5b83600073ffffffffffffffffffffffffffffffffffffffff1660008083815260200190815260200160002060010160009054906101000a900473ffffffffffffffffffffffffffffffffffffffff1673ffffffffffffffffffffffffffffffffffffffff1614156109fc576040517f08c379a00000000000000000000000000000000000000000000000000000000081526004016109f3906130ab565b60405180910390fd5b600180811115610a35577f4e487b7100000000000000000000000000000000000000000000000000000000600052602160045260246000fd5b836001811115610a6e577f4e487b7100000000000000000000000000000000000000000000000000000000600052602160045260246000fd5b1415610b085783600360003373ffffffffffffffffffffffffffffffffffffffff1673ffffffffffffffffffffffffffffffffffffffff1681526020019081526020016000206000878152602001908152602001600020541015610b07576040517f08c379a0000000000000000000000000000000000000000000000000000000008152600401610afe906130eb565b60405180910390fd5b5b6000849050600080600460008981526020019081526020016000206000806001811115610b5e577f4e487b7100000000000000000000000000000000000000000000000000000000600052602160045260246000fd5b886001811115610b97577f4e487b7100000000000000000000000000000000000000000000000000000000600052602160045260246000fd5b14610ba3576000610ba6565b60015b6001811115610bde577f4e487b7100000000000000000000000000000000000000000000000000000000600052602160045260246000fd5b815260200190815260200160002090505b60018180549050610c00919061330f565b8211158015610c0f5750600083115b1561170f576000818381548110610c4f577f4e487b7100000000000000000000000000000000000000000000000000000000600052603260045260246000fd5b906000526020600020906008020160040154828481548110610c9a577f4e487b7100000000000000000000000000000000000000000000000000000000600052603260045260246000fd5b906000526020600020906008020160020154610cb6919061330f565b90506000818511610cc75784610cc9565b815b90508085610cd7919061330f565b945080838581548110610d13577f4e487b7100000000000000000000000000000000000000000000000000000000600052603260045260246000fd5b90600052602060002090600802016004016000828254610d33919061325f565b925050819055507faeb09aeb2e315596a8e4c601fc001d16f633be06a8711a1fb60a965d32c6158a6006548b8433878981548110610d9a577f4e487b7100000000000000000000000000000000000000000000000000000000600052603260045260246000fd5b906000526020600020906008020160070160009054906101000a900473ffffffffffffffffffffffffffffffffffffffff16888a81548110610e05577f4e487b7100000000000000000000000000000000000000000000000000000000600052603260045260246000fd5b90600052602060002090600802016003015442604051610e2b97969594939291906131a6565b60405180910390a160006001811115610e6d577f4e487b7100000000000000000000000000000000000000000000000000000000600052602160045260246000fd5b886001811115610ea6577f4e487b7100000000000000000000000000000000000000000000000000000000600052602160045260246000fd5b141561130f57828481548110610ee5577f4e487b7100000000000000000000000000000000000000000000000000000000600052603260045260246000fd5b90600052602060002090600802016003015481610f0291906132b5565b600360003373ffffffffffffffffffffffffffffffffffffffff1673ffffffffffffffffffffffffffffffffffffffff16815260200190815260200160002060007f44414900000000000000000000000000000000000000000000000000000000008152602001908152602001600020541015610fb4576040517f08c379a0000000000000000000000000000000000000000000000000000000008152600401610fab9061314b565b60405180910390fd5b80600360003373ffffffffffffffffffffffffffffffffffffffff1673ffffffffffffffffffffffffffffffffffffffff16815260200190815260200160002060008c81526020019081526020016000206000828254611014919061325f565b92505081905550828481548110611054577f4e487b7100000000000000000000000000000000000000000000000000000000600052603260045260246000fd5b9060005260206000209060080201600301548161107191906132b5565b600360003373ffffffffffffffffffffffffffffffffffffffff1673ffffffffffffffffffffffffffffffffffffffff16815260200190815260200160002060007f4441490000000000000000000000000000000000000000000000000000000000815260200190815260200160002060008282546110f0919061330f565b925050819055508060036000858781548110611135577f4e487b7100000000000000000000000000000000000000000000000000000000600052603260045260246000fd5b906000526020600020906008020160070160009054906101000a900473ffffffffffffffffffffffffffffffffffffffff1673ffffffffffffffffffffffffffffffffffffffff1673ffffffffffffffffffffffffffffffffffffffff16815260200190815260200160002060008c815260200190815260200160002060008282546111c1919061330f565b92505081905550828481548110611201577f4e487b7100000000000000000000000000000000000000000000000000000000600052603260045260246000fd5b9060005260206000209060080201600301548161121e91906132b5565b6003600085878154811061125b577f4e487b7100000000000000000000000000000000000000000000000000000000600052603260045260246000fd5b906000526020600020906008020160070160009054906101000a900473ffffffffffffffffffffffffffffffffffffffff1673ffffffffffffffffffffffffffffffffffffffff1673ffffffffffffffffffffffffffffffffffffffff16815260200190815260200160002060007f444149000000000000000000000000000000000000000000000000000000000081526020019081526020016000206000828254611307919061325f565b925050819055505b600180811115611348577f4e487b7100000000000000000000000000000000000000000000000000000000600052602160045260246000fd5b886001811115611381577f4e487b7100000000000000000000000000000000000000000000000000000000600052602160045260246000fd5b14156116e25780600360003373ffffffffffffffffffffffffffffffffffffffff1673ffffffffffffffffffffffffffffffffffffffff16815260200190815260200160002060008c815260200190815260200160002060008282546113e7919061330f565b92505081905550828481548110611427577f4e487b7100000000000000000000000000000000000000000000000000000000600052603260045260246000fd5b9060005260206000209060080201600301548161144491906132b5565b600360003373ffffffffffffffffffffffffffffffffffffffff1673ffffffffffffffffffffffffffffffffffffffff16815260200190815260200160002060007f4441490000000000000000000000000000000000000000000000000000000000815260200190815260200160002060008282546114c3919061325f565b925050819055508060036000858781548110611508577f4e487b7100000000000000000000000000000000000000000000000000000000600052603260045260246000fd5b906000526020600020906008020160070160009054906101000a900473ffffffffffffffffffffffffffffffffffffffff1673ffffffffffffffffffffffffffffffffffffffff1673ffffffffffffffffffffffffffffffffffffffff16815260200190815260200160002060008c81526020019081526020016000206000828254611594919061325f565b925050819055508284815481106115d4577f4e487b7100000000000000000000000000000000000000000000000000000000600052603260045260246000fd5b906000526020600020906008020160030154816115f191906132b5565b6003600085878154811061162e577f4e487b7100000000000000000000000000000000000000000000000000000000600052603260045260246000fd5b906000526020600020906008020160070160009054906101000a900473ffffffffffffffffffffffffffffffffffffffff1673ffffffffffffffffffffffffffffffffffffffff1673ffffffffffffffffffffffffffffffffffffffff16815260200190815260200160002060007f4441490000000000000000000000000000000000000000000000000000000000815260200190815260200160002060008282546116da919061330f565b925050819055505b83806116ed906133e4565b94505060066000815480929190611703906133e4565b91905055505050610bef565b600091505b8080549050821080156117ba575080828154811061175b577f4e487b7100000000000000000000000000000000000000000000000000000000600052603260045260246000fd5b9060005260206000209060080201600201548183815481106117a6577f4e487b7100000000000000000000000000000000000000000000000000000000600052603260045260246000fd5b906000526020600020906008020160040154145b15611a625760008290505b600182805490506117d6919061330f565b81101561199357816001826117eb919061325f565b81548110611822577f4e487b7100000000000000000000000000000000000000000000000000000000600052603260045260246000fd5b9060005260206000209060080201828281548110611869577f4e487b7100000000000000000000000000000000000000000000000000000000600052603260045260246000fd5b906000526020600020906008020160008201548160000155600182015481600101556002820154816002015560038201548160030155600482015481600401556005820160009054906101000a900460ff168160050160006101000a81548160ff02191690836001811115611907577f4e487b7100000000000000000000000000000000000000000000000000000000600052602160045260246000fd5b0217905550600682015481600601556007820160009054906101000a900473ffffffffffffffffffffffffffffffffffffffff168160070160006101000a81548173ffffffffffffffffffffffffffffffffffffffff021916908373ffffffffffffffffffffffffffffffffffffffff160217905550905050808061198b906133e4565b9150506117c5565b50808054806119cb577f4e487b7100000000000000000000000000000000000000000000000000000000600052603160045260246000fd5b600190038181906000526020600020906008020160008082016000905560018201600090556002820160009055600382016000905560048201600090556005820160006101000a81549060ff021916905560068201600090556007820160006101000a81549073ffffffffffffffffffffffffffffffffffffffff0219169055505090558180611a5a906133e4565b925050611714565b5050505050505050565b60065481565b60006020528060005260406000206000915090508060000154908060010160009054906101000a900473ffffffffffffffffffffffffffffffffffffffff16905082565b600260009054906101000a900473ffffffffffffffffffffffffffffffffffffffff1673ffffffffffffffffffffffffffffffffffffffff163373ffffffffffffffffffffffffffffffffffffffff1614611b46576040517f08c379a0000000000000000000000000000000000000000000000000000000008152600401611b3d9061312b565b60405180910390fd5b60405180604001604052808381526020018273ffffffffffffffffffffffffffffffffffffffff168152506000808481526020019081526020016000206000820151816000015560208201518160010160006101000a81548173ffffffffffffffffffffffffffffffffffffffff021916908373ffffffffffffffffffffffffffffffffffffffff16021790555090505060018290806001815401808255809150506001900390600052602060002001600090919091909150555050565b60018181548110611c1457600080fd5b906000526020600020016000915090505481565b837f4441490000000000000000000000000000000000000000000000000000000000811415611c8c576040517f08c379a0000000000000000000000000000000000000000000000000000000008152600401611c839061316b565b60405180910390fd5b84600073ffffffffffffffffffffffffffffffffffffffff1660008083815260200190815260200160002060010160009054906101000a900473ffffffffffffffffffffffffffffffffffffffff1673ffffffffffffffffffffffffffffffffffffffff161415611d32576040517f08c379a0000000000000000000000000000000000000000000000000000000008152600401611d29906130ab565b60405180910390fd5b60006001811115611d6c577f4e487b7100000000000000000000000000000000000000000000000000000000600052602160045260246000fd5b836001811115611da5577f4e487b7100000000000000000000000000000000000000000000000000000000600052602160045260246000fd5b1415611e6957600360003373ffffffffffffffffffffffffffffffffffffffff1673ffffffffffffffffffffffffffffffffffffffff16815260200190815260200160002060007f44414900000000000000000000000000000000000000000000000000000000008152602001908152602001600020548486611e2891906132b5565b10611e68576040517f08c379a0000000000000000000000000000000000000000000000000000000008152600401611e5f9061314b565b60405180910390fd5b5b600180811115611ea2577f4e487b7100000000000000000000000000000000000000000000000000000000600052602160045260246000fd5b836001811115611edb577f4e487b7100000000000000000000000000000000000000000000000000000000600052602160045260246000fd5b1415611f7557600360003373ffffffffffffffffffffffffffffffffffffffff1673ffffffffffffffffffffffffffffffffffffffff168152602001908152602001600020600087815260200190815260200160002054851115611f74576040517f08c379a0000000000000000000000000000000000000000000000000000000008152600401611f6b906130cb565b60405180910390fd5b5b6000600460008881526020019081526020016000206000856001811115611fc5577f4e487b7100000000000000000000000000000000000000000000000000000000600052602160045260246000fd5b815260200190815260200160002090508060405180610100016040528089815260200160055481526020018881526020018781526020016000815260200186600181111561203c577f4e487b7100000000000000000000000000000000000000000000000000000000600052602160045260246000fd5b81526020014281526020013373ffffffffffffffffffffffffffffffffffffffff168152509080600181540180825580915050600190039060005260206000209060080201600090919091909150600082015181600001556020820151816001015560408201518160020155606082015181600301556080820151816004015560a08201518160050160006101000a81548160ff0219169083600181111561210d577f4e487b7100000000000000000000000000000000000000000000000000000000600052602160045260246000fd5b021790555060c0820151816006015560e08201518160070160006101000a81548173ffffffffffffffffffffffffffffffffffffffff021916908373ffffffffffffffffffffffffffffffffffffffff160217905550505060008082805490501161217957600061218b565b6001828054905061218a919061330f565b5b90505b600081111561283f57600060018111156121d1577f4e487b7100000000000000000000000000000000000000000000000000000000600052602160045260246000fd5b85600181111561220a577f4e487b7100000000000000000000000000000000000000000000000000000000600052602160045260246000fd5b1480156122b6575081600182612220919061330f565b81548110612257577f4e487b7100000000000000000000000000000000000000000000000000000000600052603260045260246000fd5b9060005260206000209060080201600301548282815481106122a2577f4e487b7100000000000000000000000000000000000000000000000000000000600052603260045260246000fd5b906000526020600020906008020160030154105b156122c05761283f565b6001808111156122f9577f4e487b7100000000000000000000000000000000000000000000000000000000600052602160045260246000fd5b856001811115612332577f4e487b7100000000000000000000000000000000000000000000000000000000600052602160045260246000fd5b1480156123de575081600182612348919061330f565b8154811061237f577f4e487b7100000000000000000000000000000000000000000000000000000000600052603260045260246000fd5b9060005260206000209060080201600301548282815481106123ca577f4e487b7100000000000000000000000000000000000000000000000000000000600052603260045260246000fd5b906000526020600020906008020160030154105b156123e85761283f565b6000826001836123f8919061330f565b8154811061242f577f4e487b7100000000000000000000000000000000000000000000000000000000600052603260045260246000fd5b90600052602060002090600802016040518061010001604052908160008201548152602001600182015481526020016002820154815260200160038201548152602001600482015481526020016005820160009054906101000a900460ff1660018111156124c6577f4e487b7100000000000000000000000000000000000000000000000000000000600052602160045260246000fd5b60018111156124fe577f4e487b7100000000000000000000000000000000000000000000000000000000600052602160045260246000fd5b8152602001600682015481526020016007820160009054906101000a900473ffffffffffffffffffffffffffffffffffffffff1673ffffffffffffffffffffffffffffffffffffffff1673ffffffffffffffffffffffffffffffffffffffff1681525050905082828154811061259d577f4e487b7100000000000000000000000000000000000000000000000000000000600052603260045260246000fd5b9060005260206000209060080201836001846125b9919061330f565b815481106125f0577f4e487b7100000000000000000000000000000000000000000000000000000000600052603260045260246000fd5b906000526020600020906008020160008201548160000155600182015481600101556002820154816002015560038201548160030155600482015481600401556005820160009054906101000a900460ff168160050160006101000a81548160ff0219169083600181111561268e577f4e487b7100000000000000000000000000000000000000000000000000000000600052602160045260246000fd5b0217905550600682015481600601556007820160009054906101000a900473ffffffffffffffffffffffffffffffffffffffff168160070160006101000a81548173ffffffffffffffffffffffffffffffffffffffff021916908373ffffffffffffffffffffffffffffffffffffffff16021790555090505080838381548110612741577f4e487b7100000000000000000000000000000000000000000000000000000000600052603260045260246000fd5b9060005260206000209060080201600082015181600001556020820151816001015560408201518160020155606082015181600301556080820151816004015560a08201518160050160006101000a81548160ff021916908360018111156127d2577f4e487b7100000000000000000000000000000000000000000000000000000000600052602160045260246000fd5b021790555060c0820151816006015560e08201518160070160006101000a81548173ffffffffffffffffffffffffffffffffffffffff021916908373ffffffffffffffffffffffffffffffffffffffff1602179055509050508180612836906133ba565b9250505061218e565b60056000815480929190612852906133e4565b91905055505050505050505050565b6004602052826000526040600020602052816000526040600020818154811061288957600080fd5b906000526020600020906008020160009250925050508060000154908060010154908060020154908060030154908060040154908060050160009054906101000a900460ff16908060060154908060070160009054906101000a900473ffffffffffffffffffffffffffffffffffffffff16905088565b600260009054906101000a900473ffffffffffffffffffffffffffffffffffffffff1681565b6000813590506129358161349f565b92915050565b60008151905061294a816134b6565b92915050565b60008135905061295f816134cd565b92915050565b600081359050612974816134e4565b92915050565b600081359050612989816134f4565b92915050565b600080604083850312156129a257600080fd5b60006129b085828601612926565b92505060206129c185828601612950565b9150509250929050565b6000602082840312156129dd57600080fd5b60006129eb8482850161293b565b91505092915050565b600060208284031215612a0657600080fd5b6000612a1484828501612950565b91505092915050565b60008060408385031215612a3057600080fd5b6000612a3e85828601612950565b9250506020612a4f85828601612926565b9150509250929050565b60008060408385031215612a6c57600080fd5b6000612a7a85828601612950565b9250506020612a8b85828601612965565b9150509250929050565b60008060408385031215612aa857600080fd5b6000612ab685828601612950565b9250506020612ac78582860161297a565b9150509250929050565b600080600060608486031215612ae657600080fd5b6000612af486828701612950565b9350506020612b058682870161297a565b9250506040612b1686828701612965565b9150509250925092565b600080600060608486031215612b3557600080fd5b6000612b4386828701612950565b9350506020612b548682870161297a565b9250506040612b658682870161297a565b9150509250925092565b60008060008060808587031215612b8557600080fd5b6000612b9387828801612950565b9450506020612ba48782880161297a565b9350506040612bb58782880161297a565b9250506060612bc687828801612965565b91505092959194509250565b600060208284031215612be457600080fd5b6000612bf28482850161297a565b91505092915050565b6000612c078383612e8c565b6101008301905092915050565b612c1d81613343565b82525050565b612c2c81613343565b82525050565b6000612c3d82613225565b612c47818561323d565b9350612c5283613215565b8060005b83811015612c83578151612c6a8882612bfb565b9750612c7583613230565b925050600181019050612c56565b5085935050505092915050565b612c9981613361565b82525050565b612ca881613361565b82525050565b612cb7816133a8565b82525050565b612cc6816133a8565b82525050565b6000612cd9601c8361324e565b91507f546f6b656e206973206e6f7420696e2074686520444558207965742e000000006000830152602082019050919050565b6000612d1960108361324e565b91507f4e6f7420656e6f75676820746f6b656e000000000000000000000000000000006000830152602082019050919050565b6000612d5960168361324e565b91507f42616c616e6365206973206e6f7420656e6f7567682e000000000000000000006000830152602082019050919050565b6000612d9960128361324e565b91507f42616c616e636520697320746f6f206c6f7700000000000000000000000000006000830152602082019050919050565b6000612dd9601c8361324e565b91507f4f6e6c792061646d696e2063616e20616464206e657720746f6b656e000000006000830152602082019050919050565b6000612e19600e8361324e565b91507f4e6f7420656e6f756768204441490000000000000000000000000000000000006000830152602082019050919050565b6000612e5960118361324e565b91507f43616e6e6f74207472616465204441492e0000000000000000000000000000006000830152602082019050919050565b61010082016000820151612ea36000850182612c90565b506020820151612eb66020850182612f2e565b506040820151612ec96040850182612f2e565b506060820151612edc6060850182612f2e565b506080820151612eef6080850182612f2e565b5060a0820151612f0260a0850182612cae565b5060c0820151612f1560c0850182612f2e565b5060e0820151612f2860e0850182612c14565b50505050565b612f378161339e565b82525050565b612f468161339e565b82525050565b6000602082019050612f616000830184612c23565b92915050565b6000606082019050612f7c6000830186612c23565b612f896020830185612c23565b612f966040830184612f3d565b949350505050565b6000604082019050612fb36000830185612c23565b612fc06020830184612f3d565b9392505050565b60006020820190508181036000830152612fe18184612c32565b905092915050565b6000602082019050612ffe6000830184612c9f565b92915050565b60006040820190506130196000830185612c9f565b6130266020830184612c23565b9392505050565b600061010082019050613043600083018b612c9f565b613050602083018a612f3d565b61305d6040830189612f3d565b61306a6060830188612f3d565b6130776080830187612f3d565b61308460a0830186612cbd565b61309160c0830185612f3d565b61309e60e0830184612c23565b9998505050505050505050565b600060208201905081810360008301526130c481612ccc565b9050919050565b600060208201905081810360008301526130e481612d0c565b9050919050565b6000602082019050818103600083015261310481612d4c565b9050919050565b6000602082019050818103600083015261312481612d8c565b9050919050565b6000602082019050818103600083015261314481612dcc565b9050919050565b6000602082019050818103600083015261316481612e0c565b9050919050565b6000602082019050818103600083015261318481612e4c565b9050919050565b60006020820190506131a06000830184612f3d565b92915050565b600060e0820190506131bb600083018a612f3d565b6131c86020830189612c9f565b6131d56040830188612f3d565b6131e26060830187612c23565b6131ef6080830186612c23565b6131fc60a0830185612f3d565b61320960c0830184612f3d565b98975050505050505050565b6000819050602082019050919050565b600081519050919050565b6000602082019050919050565b600082825260208201905092915050565b600082825260208201905092915050565b600061326a8261339e565b91506132758361339e565b9250827fffffffffffffffffffffffffffffffffffffffffffffffffffffffffffffffff038211156132aa576132a961342d565b5b828201905092915050565b60006132c08261339e565b91506132cb8361339e565b9250817fffffffffffffffffffffffffffffffffffffffffffffffffffffffffffffffff04831182151516156133045761330361342d565b5b828202905092915050565b600061331a8261339e565b91506133258361339e565b9250828210156133385761333761342d565b5b828203905092915050565b600061334e8261337e565b9050919050565b60008115159050919050565b6000819050919050565b60008190506133798261348b565b919050565b600073ffffffffffffffffffffffffffffffffffffffff82169050919050565b6000819050919050565b60006133b38261336b565b9050919050565b60006133c58261339e565b915060008214156133d9576133d861342d565b5b600182039050919050565b60006133ef8261339e565b91507fffffffffffffffffffffffffffffffffffffffffffffffffffffffffffffffff8214156134225761342161342d565b5b600182019050919050565b7f4e487b7100000000000000000000000000000000000000000000000000000000600052601160045260246000fd5b7f4e487b7100000000000000000000000000000000000000000000000000000000600052602160045260246000fd5b6002811061349c5761349b61345c565b5b50565b6134a881613343565b81146134b357600080fd5b50565b6134bf81613355565b81146134ca57600080fd5b50565b6134d681613361565b81146134e157600080fd5b50565b600281106134f157600080fd5b50565b6134fd8161339e565b811461350857600080fd5b5056fea2646970667358221220c683da4754440194bb0cf64330539c2ef0b3ba992e0f6ce8a512334f3962ce7564736f6c63430008000033",
  "immutableReferences": {},
  "source": "// SPDX-License-Identifier: MIT\r\n\r\npragma solidity ^0.8.0;\r\n\r\n// Interface for contract\r\nimport \"@openzeppelin/contracts/token/ERC20/IERC20.sol\";\r\n\r\n/**\r\n * @title Dexs\r\n * @dev Decentralized Exchange\r\n */\r\ncontract Dex {\r\n    struct Token {\r\n        bytes32 ticker;\r\n        address tokenAddress;\r\n    }\r\n    // struct for store an order\r\n    struct Order {\r\n        bytes32 ticker;\r\n        uint256 id;\r\n        uint256 amount;\r\n        uint256 price;\r\n        uint256 filled;\r\n        Side side;\r\n        uint256 date;\r\n        address owner;\r\n    }\r\n    // enum for Buy or Sell\r\n    enum Side {\r\n        BUY,\r\n        SELL\r\n    }\r\n\r\n    mapping(bytes32 => Token) public tokens;\r\n    bytes32[] public tokenList;\r\n    address public admin;\r\n    // stores trader' balances\r\n    mapping(address => mapping(bytes32 => uint256)) public traderBalances;\r\n    // mapping to stores order book, pool of orders\r\n    mapping(bytes32 => mapping(uint256 => Order[])) public orderbook; // uint is reference for Side.BUY or Side.SELL\r\n    // pointer for Order book\r\n    uint256 public nextOrderId;\r\n    uint256 public nextTradeId;\r\n    // stores DAI ticker for consistent and save gas cause it only runs when compile\r\n    bytes32 constant DAI = bytes32(\"DAI\");\r\n\r\n    // event for a new trade\r\n    event NewTrade(\r\n        uint256 tradeId,\r\n        bytes32 ticker,\r\n        uint256 amount,\r\n        address seller,\r\n        address buyer,\r\n        uint256 price,\r\n        uint256 date\r\n    );\r\n\r\n    constructor() {\r\n        admin = msg.sender;\r\n    }\r\n    // modifier to add new token to the exchange\r\n    modifier onlyAdmin() {\r\n        require(msg.sender == admin, \"Only admin can add new token\");\r\n        _;\r\n    }\r\n    // modifier to check a token is existed in Dex\r\n    modifier tokenExists(bytes32 _ticker) {\r\n        require(\r\n            tokens[_ticker].tokenAddress != address(0),\r\n            \"Token is not in the DEX yet.\"\r\n        );\r\n        _;\r\n    }\r\n    // modifier to check the trade token is not DAI\r\n    modifier isNotDAI(bytes32 _ticker) {\r\n        require(\r\n            _ticker != bytes32(\"DAI\"), \r\n            \"Cannot trade DAI.\");\r\n        _;\r\n    }\r\n\r\n    function getOrders(bytes32 _ticker, Side _side) \r\n        external \r\n        view \r\n        returns (Order[] memory) {\r\n        return orderbook[_ticker][uint(_side)];\r\n    }\r\n    /**\r\n     * @dev Add a token to Dex\r\n     */\r\n    function addToken(bytes32 _ticker, address _tokenAddress)\r\n        external\r\n        onlyAdmin\r\n    {\r\n        tokens[_ticker] = Token(_ticker, _tokenAddress);\r\n        tokenList.push(_ticker);\r\n    }\r\n    /**\r\n     * @dev Deposit a balance\r\n     */\r\n    function deposit(bytes32 _ticker, uint256 _amount )\r\n        external\r\n        tokenExists(_ticker)\r\n    {\r\n        IERC20(tokens[_ticker].tokenAddress).transferFrom(\r\n            msg.sender,\r\n            address(this),\r\n            _amount\r\n        );\r\n        traderBalances[msg.sender][_ticker] += _amount;\r\n    }\r\n    /**\r\n     * @dev Withdraw a balance\r\n     */\r\n    function withdraw(\r\n        bytes32 _ticker,\r\n        uint256 _amount\r\n        ) \r\n        external \r\n        tokenExists(_ticker) {\r\n        require(\r\n            traderBalances[msg.sender][_ticker] >= _amount,\r\n            \"Balance is too low\"\r\n        );\r\n\r\n        IERC20(tokens[_ticker].tokenAddress).transfer(\r\n            msg.sender,\r\n            _amount\r\n        );\r\n        traderBalances[msg.sender][_ticker] -= _amount;\r\n    }\r\n    /**\r\n     * @dev Create a limit order\r\n     */\r\n    function createLimitOrder(\r\n        bytes32 _ticker,\r\n        uint256 _amount,\r\n        uint256 _price,\r\n        Side _side\r\n        ) \r\n        external \r\n        isNotDAI(_ticker) \r\n        tokenExists(_ticker) {\r\n        // Define a order is SELL or BUY\r\n        if (_side == Side.BUY) {\r\n            // Check the balance if SELL or BUY\r\n            require(\r\n                (_amount * _price) < traderBalances[msg.sender][DAI],\r\n                \"Not enough DAI\"\r\n            );\r\n        }\r\n        if (_side == Side.SELL) {\r\n            // Check the balance if SELL or BUY\r\n            require(\r\n                _amount <= traderBalances[msg.sender][_ticker],\r\n                \"Not enough token\"\r\n            );\r\n        }\r\n        // Add the order to orderbook\r\n        Order[] storage orders = orderbook[_ticker][uint256(_side)];\r\n        orders.push(\r\n            Order(\r\n                _ticker,\r\n                nextOrderId,\r\n                _amount,\r\n                _price,\r\n                0,\r\n                _side,\r\n                block.timestamp,\r\n                msg.sender\r\n            )\r\n        );\r\n        // Sort the orderbook as order of best price\r\n        uint256 i = orders.length > 0 ? (orders.length - 1) : 0;\r\n        while (i > 0) {\r\n            if (_side == Side.BUY && orders[i].price < orders[i - 1].price) {\r\n                break;\r\n            }\r\n            if (_side == Side.SELL && orders[i].price < orders[i - 1].price) {\r\n                break;\r\n            }\r\n            Order memory order = orders[i - 1];\r\n            orders[i - 1] = orders[i];\r\n            orders[i] = order;\r\n            i--;\r\n        }\r\n        nextOrderId++;\r\n    }\r\n    /**\r\n     * @dev Create a market order\r\n     */\r\n    function createMarketOrder(\r\n        bytes32 _ticker,\r\n        uint256 _amount,\r\n        Side _side\r\n        ) \r\n        external \r\n        isNotDAI(_ticker) \r\n        tokenExists(_ticker) {\r\n        if (_side == Side.SELL) {\r\n            require(\r\n                traderBalances[msg.sender][_ticker] >= _amount,\r\n                \"Balance is not enough.\"\r\n            );\r\n        }\r\n        // Keep track of the _amount of this order to be filled\r\n        uint256 remaining = _amount;\r\n        // Get the first order in orderBook\r\n        uint256 i;\r\n        Order[] storage orders = orderbook[_ticker][\r\n            uint256(_side == Side.BUY ? Side.SELL : Side.BUY)\r\n        ];\r\n\r\n        while (i <= orders.length - 1 && remaining > 0) {\r\n            uint256 available = orders[i].amount - orders[i].filled;\r\n            uint256 matched = remaining > available ? available : remaining;\r\n\r\n            remaining -= matched;\r\n            orders[i].filled += matched;\r\n            emit NewTrade(\r\n                nextTradeId,\r\n                _ticker,\r\n                available,\r\n                msg.sender,\r\n                orders[i].owner,\r\n                orders[i].price,\r\n                block.timestamp\r\n            );\r\n\r\n            if (_side == Side.BUY) {\r\n                require(\r\n                    traderBalances[msg.sender][DAI] >=\r\n                        matched * orders[i].price,\r\n                    \"Not enough DAI\"\r\n                );\r\n                traderBalances[msg.sender][_ticker] += matched;\r\n                traderBalances[msg.sender][DAI] -= matched * orders[i].price;\r\n                traderBalances[orders[i].owner][_ticker] -= matched;\r\n                traderBalances[orders[i].owner][DAI] +=\r\n                    matched *\r\n                    orders[i].price;\r\n            }\r\n            if (_side == Side.SELL) {\r\n                traderBalances[msg.sender][_ticker] -= matched;\r\n                traderBalances[msg.sender][DAI] += matched * orders[i].price;\r\n                traderBalances[orders[i].owner][_ticker] += matched;\r\n                traderBalances[orders[i].owner][DAI] -=\r\n                    matched *\r\n                    orders[i].price;\r\n            }\r\n            i++;\r\n            nextTradeId++;\r\n        }\r\n\r\n        i = 0;\r\n        // Remove the all filled orders in the top of orderBook\r\n        while(i < orders.length && orders[i].filled == orders[i].amount) {\r\n            for (uint j = i; j < orders.length - 1; j++) {\r\n                orders[j] = orders[j+1];\r\n            }\r\n            orders.pop();\r\n            i++;\r\n        }\r\n    }\r\n}\r\n",
  "sourcePath": "C:\\Users\\quy.nguyen\\blockchain_app\\dex\\contracts\\Dex.sol",
  "compiler": {
    "name": "solc",
    "version": "0.8.0+commit.c7dfd78e.Emscripten.clang"
  },
  "schemaVersion": "3.4.4",
  "updatedAt": "2022-05-07T03:18:31.440Z",
  "networkType": "ethereum",
  "devdoc": {
    "details": "Decentralized Exchange",
    "kind": "dev",
    "methods": {
      "addToken(bytes32,address)": {
        "details": "Add a token to Dex"
      },
      "createLimitOrder(bytes32,uint256,uint256,uint8)": {
        "details": "Create a limit order"
      },
      "createMarketOrder(bytes32,uint256,uint8)": {
        "details": "Create a market order"
      },
      "deposit(bytes32,uint256)": {
        "details": "Deposit a balance"
      },
      "withdraw(bytes32,uint256)": {
        "details": "Withdraw a balance"
      }
    },
    "title": "Dexs",
    "version": 1
  },
  "userdoc": {
    "kind": "user",
    "methods": {},
    "version": 1
  }
}