{
  "contractName": "Dex",
  "abi": [
    {
      "inputs": [],
      "stateMutability": "nonpayable",
      "type": "constructor"
    },
    {
      "anonymous": false,
      "inputs": [
        {
          "indexed": false,
          "internalType": "uint256",
          "name": "tradeId",
          "type": "uint256"
        },
        {
          "indexed": false,
          "internalType": "bytes32",
          "name": "ticker",
          "type": "bytes32"
        },
        {
          "indexed": false,
          "internalType": "uint256",
          "name": "amount",
          "type": "uint256"
        },
        {
          "indexed": false,
          "internalType": "address",
          "name": "seller",
          "type": "address"
        },
        {
          "indexed": false,
          "internalType": "address",
          "name": "buyer",
          "type": "address"
        },
        {
          "indexed": false,
          "internalType": "uint256",
          "name": "price",
          "type": "uint256"
        },
        {
          "indexed": false,
          "internalType": "uint256",
          "name": "date",
          "type": "uint256"
        }
      ],
      "name": "NewTrade",
      "type": "event"
    },
    {
      "inputs": [],
      "name": "admin",
      "outputs": [
        {
          "internalType": "address",
          "name": "",
          "type": "address"
        }
      ],
      "stateMutability": "view",
      "type": "function"
    },
    {
      "inputs": [],
      "name": "nextOrderId",
      "outputs": [
        {
          "internalType": "uint256",
          "name": "",
          "type": "uint256"
        }
      ],
      "stateMutability": "view",
      "type": "function"
    },
    {
      "inputs": [],
      "name": "nextTradeId",
      "outputs": [
        {
          "internalType": "uint256",
          "name": "",
          "type": "uint256"
        }
      ],
      "stateMutability": "view",
      "type": "function"
    },
    {
      "inputs": [
        {
          "internalType": "bytes32",
          "name": "",
          "type": "bytes32"
        },
        {
          "internalType": "uint256",
          "name": "",
          "type": "uint256"
        },
        {
          "internalType": "uint256",
          "name": "",
          "type": "uint256"
        }
      ],
      "name": "orderbook",
      "outputs": [
        {
          "internalType": "bytes32",
          "name": "ticker",
          "type": "bytes32"
        },
        {
          "internalType": "uint256",
          "name": "id",
          "type": "uint256"
        },
        {
          "internalType": "uint256",
          "name": "amount",
          "type": "uint256"
        },
        {
          "internalType": "uint256",
          "name": "price",
          "type": "uint256"
        },
        {
          "internalType": "uint256",
          "name": "filled",
          "type": "uint256"
        },
        {
          "internalType": "enum Dex.Side",
          "name": "side",
          "type": "uint8"
        },
        {
          "internalType": "uint256",
          "name": "date",
          "type": "uint256"
        },
        {
          "internalType": "address",
          "name": "owner",
          "type": "address"
        }
      ],
      "stateMutability": "view",
      "type": "function"
    },
    {
      "inputs": [
        {
          "internalType": "uint256",
          "name": "",
          "type": "uint256"
        }
      ],
      "name": "tokenList",
      "outputs": [
        {
          "internalType": "bytes32",
          "name": "",
          "type": "bytes32"
        }
      ],
      "stateMutability": "view",
      "type": "function"
    },
    {
      "inputs": [
        {
          "internalType": "bytes32",
          "name": "",
          "type": "bytes32"
        }
      ],
      "name": "tokens",
      "outputs": [
        {
          "internalType": "bytes32",
          "name": "ticker",
          "type": "bytes32"
        },
        {
          "internalType": "address",
          "name": "tokenAddress",
          "type": "address"
        }
      ],
      "stateMutability": "view",
      "type": "function"
    },
    {
      "inputs": [
        {
          "internalType": "address",
          "name": "",
          "type": "address"
        },
        {
          "internalType": "bytes32",
          "name": "",
          "type": "bytes32"
        }
      ],
      "name": "traderBalances",
      "outputs": [
        {
          "internalType": "uint256",
          "name": "",
          "type": "uint256"
        }
      ],
      "stateMutability": "view",
      "type": "function"
    },
    {
      "inputs": [
        {
          "internalType": "bytes32",
          "name": "_ticker",
          "type": "bytes32"
        },
        {
          "internalType": "address",
          "name": "_tokenAddress",
          "type": "address"
        }
      ],
      "name": "addToken",
      "outputs": [],
      "stateMutability": "nonpayable",
      "type": "function"
    },
    {
      "inputs": [
        {
          "internalType": "uint256",
          "name": "_amount",
          "type": "uint256"
        },
        {
          "internalType": "bytes32",
          "name": "_ticker",
          "type": "bytes32"
        }
      ],
      "name": "deposit",
      "outputs": [],
      "stateMutability": "nonpayable",
      "type": "function"
    },
    {
      "inputs": [
        {
          "internalType": "address",
          "name": "_to",
          "type": "address"
        },
        {
          "internalType": "bytes32",
          "name": "_ticker",
          "type": "bytes32"
        },
        {
          "internalType": "uint256",
          "name": "_amount",
          "type": "uint256"
        }
      ],
      "name": "withdraw",
      "outputs": [],
      "stateMutability": "nonpayable",
      "type": "function"
    },
    {
      "inputs": [
        {
          "internalType": "bytes32",
          "name": "_ticker",
          "type": "bytes32"
        },
        {
          "internalType": "uint256",
          "name": "_amount",
          "type": "uint256"
        },
        {
          "internalType": "uint256",
          "name": "_price",
          "type": "uint256"
        },
        {
          "internalType": "enum Dex.Side",
          "name": "_side",
          "type": "uint8"
        }
      ],
      "name": "createLimitOrder",
      "outputs": [],
      "stateMutability": "nonpayable",
      "type": "function"
    },
    {
      "inputs": [
        {
          "internalType": "bytes32",
          "name": "_ticker",
          "type": "bytes32"
        },
        {
          "internalType": "uint256",
          "name": "_amount",
          "type": "uint256"
        },
        {
          "internalType": "enum Dex.Side",
          "name": "_side",
          "type": "uint8"
        }
      ],
      "name": "createMarketOrder",
      "outputs": [],
      "stateMutability": "nonpayable",
      "type": "function"
    }
  ],
  "bytecode": "0x608060405234801561001057600080fd5b5033600260006101000a81548173ffffffffffffffffffffffffffffffffffffffff021916908373ffffffffffffffffffffffffffffffffffffffff1602179055506131bc806100616000396000f3fe608060405234801561001057600080fd5b50600436106100b45760003560e01c80639776aacf116100715780639776aacf1461018e5780639ead7222146101aa578063c9630cb0146101da578063d9c0c950146101f6578063f850240214610212578063f851a44014610249576100b4565b80632917173a146100b95780632a58b330146100d557806372ce957e146100f35780637f2c624614610123578063813ad0831461013f578063904194a31461015d575b600080fd5b6100d360048036038101906100ce91906127ac565b610267565b005b6100dd6104d2565b6040516100ea9190612e3f565b60405180910390f35b61010d60048036038101906101089190612770565b6104d8565b60405161011a9190612e3f565b60405180910390f35b61013d60048036038101906101389190612889565b6104fd565b005b610147611676565b6040516101549190612e3f565b60405180910390f35b61017760048036038101906101729190612824565b61167c565b604051610185929190612c98565b60405180910390f35b6101a860048036038101906101a3919061284d565b6116c0565b005b6101c460048036038101906101bf919061298a565b61180e565b6040516101d19190612c7d565b60405180910390f35b6101f460048036038101906101ef91906129b3565b611832565b005b610210600480360381019061020b9190612927565b611a09565b005b61022c600480360381019061022791906128d8565b612642565b604051610240989796959493929190612cc1565b60405180910390f35b6102516126e1565b60405161025e9190612c2b565b60405180910390f35b81600073ffffffffffffffffffffffffffffffffffffffff1660008083815260200190815260200160002060010160009054906101000a900473ffffffffffffffffffffffffffffffffffffffff1673ffffffffffffffffffffffffffffffffffffffff16141561030d576040517f08c379a000000000000000000000000000000000000000000000000000000000815260040161030490612d3f565b60405180910390fd5b81600360003373ffffffffffffffffffffffffffffffffffffffff1673ffffffffffffffffffffffffffffffffffffffff16815260200190815260200160002060008581526020019081526020016000205410156103a0576040517f08c379a000000000000000000000000000000000000000000000000000000000815260040161039790612dbf565b60405180910390fd5b60008084815260200190815260200160002060010160009054906101000a900473ffffffffffffffffffffffffffffffffffffffff1673ffffffffffffffffffffffffffffffffffffffff166323b872dd3086856040518463ffffffff1660e01b815260040161041293929190612c46565b602060405180830381600087803b15801561042c57600080fd5b505af1158015610440573d6000803e3d6000fd5b505050506040513d601f19601f8201168201806040525081019061046491906127fb565b5081600360003373ffffffffffffffffffffffffffffffffffffffff1673ffffffffffffffffffffffffffffffffffffffff168152602001908152602001600020600085815260200190815260200160002060008282546104c59190612f8a565b9250508190555050505050565b60055481565b6003602052816000526040600020602052806000526040600020600091509150505481565b827f4441490000000000000000000000000000000000000000000000000000000000811415610561576040517f08c379a000000000000000000000000000000000000000000000000000000000815260040161055890612e1f565b60405180910390fd5b83600073ffffffffffffffffffffffffffffffffffffffff1660008083815260200190815260200160002060010160009054906101000a900473ffffffffffffffffffffffffffffffffffffffff1673ffffffffffffffffffffffffffffffffffffffff161415610607576040517f08c379a00000000000000000000000000000000000000000000000000000000081526004016105fe90612d3f565b60405180910390fd5b600180811115610640577f4e487b7100000000000000000000000000000000000000000000000000000000600052602160045260246000fd5b836001811115610679577f4e487b7100000000000000000000000000000000000000000000000000000000600052602160045260246000fd5b14156107135783600360003373ffffffffffffffffffffffffffffffffffffffff1673ffffffffffffffffffffffffffffffffffffffff1681526020019081526020016000206000878152602001908152602001600020541015610712576040517f08c379a000000000000000000000000000000000000000000000000000000000815260040161070990612d9f565b60405180910390fd5b5b6000849050600080600460008981526020019081526020016000206000806001811115610769577f4e487b7100000000000000000000000000000000000000000000000000000000600052602160045260246000fd5b8860018111156107a2577f4e487b7100000000000000000000000000000000000000000000000000000000600052602160045260246000fd5b146107ae5760006107b1565b60015b60018111156107e9577f4e487b7100000000000000000000000000000000000000000000000000000000600052602160045260246000fd5b815260200190815260200160002090505b6001818054905061080b9190612f8a565b821080156108195750600083115b15611319576000818381548110610859577f4e487b7100000000000000000000000000000000000000000000000000000000600052603260045260246000fd5b9060005260206000209060080201600401548284815481106108a4577f4e487b7100000000000000000000000000000000000000000000000000000000600052603260045260246000fd5b9060005260206000209060080201600201546108c09190612f8a565b905060008185116108d157846108d3565b815b905080856108e19190612f8a565b94508083858154811061091d577f4e487b7100000000000000000000000000000000000000000000000000000000600052603260045260246000fd5b9060005260206000209060080201600401600082825461093d9190612eda565b925050819055507faeb09aeb2e315596a8e4c601fc001d16f633be06a8711a1fb60a965d32c6158a6006548b84338789815481106109a4577f4e487b7100000000000000000000000000000000000000000000000000000000600052603260045260246000fd5b906000526020600020906008020160070160009054906101000a900473ffffffffffffffffffffffffffffffffffffffff16888a81548110610a0f577f4e487b7100000000000000000000000000000000000000000000000000000000600052603260045260246000fd5b90600052602060002090600802016003015442604051610a359796959493929190612e5a565b60405180910390a160006001811115610a77577f4e487b7100000000000000000000000000000000000000000000000000000000600052602160045260246000fd5b886001811115610ab0577f4e487b7100000000000000000000000000000000000000000000000000000000600052602160045260246000fd5b1415610f1957828481548110610aef577f4e487b7100000000000000000000000000000000000000000000000000000000600052603260045260246000fd5b90600052602060002090600802016003015481610b0c9190612f30565b600360003373ffffffffffffffffffffffffffffffffffffffff1673ffffffffffffffffffffffffffffffffffffffff16815260200190815260200160002060007f44414900000000000000000000000000000000000000000000000000000000008152602001908152602001600020541015610bbe576040517f08c379a0000000000000000000000000000000000000000000000000000000008152600401610bb590612dff565b60405180910390fd5b80600360003373ffffffffffffffffffffffffffffffffffffffff1673ffffffffffffffffffffffffffffffffffffffff16815260200190815260200160002060008c81526020019081526020016000206000828254610c1e9190612eda565b92505081905550828481548110610c5e577f4e487b7100000000000000000000000000000000000000000000000000000000600052603260045260246000fd5b90600052602060002090600802016003015481610c7b9190612f30565b600360003373ffffffffffffffffffffffffffffffffffffffff1673ffffffffffffffffffffffffffffffffffffffff16815260200190815260200160002060007f444149000000000000000000000000000000000000000000000000000000000081526020019081526020016000206000828254610cfa9190612f8a565b925050819055508060036000858781548110610d3f577f4e487b7100000000000000000000000000000000000000000000000000000000600052603260045260246000fd5b906000526020600020906008020160070160009054906101000a900473ffffffffffffffffffffffffffffffffffffffff1673ffffffffffffffffffffffffffffffffffffffff1673ffffffffffffffffffffffffffffffffffffffff16815260200190815260200160002060008c81526020019081526020016000206000828254610dcb9190612f8a565b92505081905550828481548110610e0b577f4e487b7100000000000000000000000000000000000000000000000000000000600052603260045260246000fd5b90600052602060002090600802016003015481610e289190612f30565b60036000858781548110610e65577f4e487b7100000000000000000000000000000000000000000000000000000000600052603260045260246000fd5b906000526020600020906008020160070160009054906101000a900473ffffffffffffffffffffffffffffffffffffffff1673ffffffffffffffffffffffffffffffffffffffff1673ffffffffffffffffffffffffffffffffffffffff16815260200190815260200160002060007f444149000000000000000000000000000000000000000000000000000000000081526020019081526020016000206000828254610f119190612eda565b925050819055505b600180811115610f52577f4e487b7100000000000000000000000000000000000000000000000000000000600052602160045260246000fd5b886001811115610f8b577f4e487b7100000000000000000000000000000000000000000000000000000000600052602160045260246000fd5b14156112ec5780600360003373ffffffffffffffffffffffffffffffffffffffff1673ffffffffffffffffffffffffffffffffffffffff16815260200190815260200160002060008c81526020019081526020016000206000828254610ff19190612f8a565b92505081905550828481548110611031577f4e487b7100000000000000000000000000000000000000000000000000000000600052603260045260246000fd5b9060005260206000209060080201600301548161104e9190612f30565b600360003373ffffffffffffffffffffffffffffffffffffffff1673ffffffffffffffffffffffffffffffffffffffff16815260200190815260200160002060007f4441490000000000000000000000000000000000000000000000000000000000815260200190815260200160002060008282546110cd9190612eda565b925050819055508060036000858781548110611112577f4e487b7100000000000000000000000000000000000000000000000000000000600052603260045260246000fd5b906000526020600020906008020160070160009054906101000a900473ffffffffffffffffffffffffffffffffffffffff1673ffffffffffffffffffffffffffffffffffffffff1673ffffffffffffffffffffffffffffffffffffffff16815260200190815260200160002060008c8152602001908152602001600020600082825461119e9190612eda565b925050819055508284815481106111de577f4e487b7100000000000000000000000000000000000000000000000000000000600052603260045260246000fd5b906000526020600020906008020160030154816111fb9190612f30565b60036000858781548110611238577f4e487b7100000000000000000000000000000000000000000000000000000000600052603260045260246000fd5b906000526020600020906008020160070160009054906101000a900473ffffffffffffffffffffffffffffffffffffffff1673ffffffffffffffffffffffffffffffffffffffff1673ffffffffffffffffffffffffffffffffffffffff16815260200190815260200160002060007f4441490000000000000000000000000000000000000000000000000000000000815260200190815260200160002060008282546112e49190612f8a565b925050819055505b83806112f79061305f565b9450506006600081548092919061130d9061305f565b919050555050506107fa565b600091505b8080549050821080156113c45750808281548110611365577f4e487b7100000000000000000000000000000000000000000000000000000000600052603260045260246000fd5b9060005260206000209060080201600201548183815481106113b0577f4e487b7100000000000000000000000000000000000000000000000000000000600052603260045260246000fd5b906000526020600020906008020160040154145b1561166c5760008290505b600182805490506113e09190612f8a565b81101561159d57816001826113f59190612eda565b8154811061142c577f4e487b7100000000000000000000000000000000000000000000000000000000600052603260045260246000fd5b9060005260206000209060080201828281548110611473577f4e487b7100000000000000000000000000000000000000000000000000000000600052603260045260246000fd5b906000526020600020906008020160008201548160000155600182015481600101556002820154816002015560038201548160030155600482015481600401556005820160009054906101000a900460ff168160050160006101000a81548160ff02191690836001811115611511577f4e487b7100000000000000000000000000000000000000000000000000000000600052602160045260246000fd5b0217905550600682015481600601556007820160009054906101000a900473ffffffffffffffffffffffffffffffffffffffff168160070160006101000a81548173ffffffffffffffffffffffffffffffffffffffff021916908373ffffffffffffffffffffffffffffffffffffffff16021790555090505080806115959061305f565b9150506113cf565b50808054806115d5577f4e487b7100000000000000000000000000000000000000000000000000000000600052603160045260246000fd5b600190038181906000526020600020906008020160008082016000905560018201600090556002820160009055600382016000905560048201600090556005820160006101000a81549060ff021916905560068201600090556007820160006101000a81549073ffffffffffffffffffffffffffffffffffffffff02191690555050905581806116649061305f565b92505061131e565b5050505050505050565b60065481565b60006020528060005260406000206000915090508060000154908060010160009054906101000a900473ffffffffffffffffffffffffffffffffffffffff16905082565b600260009054906101000a900473ffffffffffffffffffffffffffffffffffffffff1673ffffffffffffffffffffffffffffffffffffffff163373ffffffffffffffffffffffffffffffffffffffff1614611750576040517f08c379a000000000000000000000000000000000000000000000000000000000815260040161174790612ddf565b60405180910390fd5b60405180604001604052808381526020018273ffffffffffffffffffffffffffffffffffffffff168152506000808481526020019081526020016000206000820151816000015560208201518160010160006101000a81548173ffffffffffffffffffffffffffffffffffffffff021916908373ffffffffffffffffffffffffffffffffffffffff16021790555090505060018290806001815401808255809150506001900390600052602060002001600090919091909150555050565b6001818154811061181e57600080fd5b906000526020600020016000915090505481565b80600073ffffffffffffffffffffffffffffffffffffffff1660008083815260200190815260200160002060010160009054906101000a900473ffffffffffffffffffffffffffffffffffffffff1673ffffffffffffffffffffffffffffffffffffffff1614156118d8576040517f08c379a00000000000000000000000000000000000000000000000000000000081526004016118cf90612d3f565b60405180910390fd5b60008083815260200190815260200160002060010160009054906101000a900473ffffffffffffffffffffffffffffffffffffffff1673ffffffffffffffffffffffffffffffffffffffff166323b872dd3330866040518463ffffffff1660e01b815260040161194a93929190612c46565b602060405180830381600087803b15801561196457600080fd5b505af1158015611978573d6000803e3d6000fd5b505050506040513d601f19601f8201168201806040525081019061199c91906127fb565b5082600360003373ffffffffffffffffffffffffffffffffffffffff1673ffffffffffffffffffffffffffffffffffffffff168152602001908152602001600020600084815260200190815260200160002060008282546119fd9190612eda565b92505081905550505050565b837f4441490000000000000000000000000000000000000000000000000000000000811415611a6d576040517f08c379a0000000000000000000000000000000000000000000000000000000008152600401611a6490612e1f565b60405180910390fd5b84600073ffffffffffffffffffffffffffffffffffffffff1660008083815260200190815260200160002060010160009054906101000a900473ffffffffffffffffffffffffffffffffffffffff1673ffffffffffffffffffffffffffffffffffffffff161415611b13576040517f08c379a0000000000000000000000000000000000000000000000000000000008152600401611b0a90612d3f565b60405180910390fd5b60006001811115611b4d577f4e487b7100000000000000000000000000000000000000000000000000000000600052602160045260246000fd5b836001811115611b86577f4e487b7100000000000000000000000000000000000000000000000000000000600052602160045260246000fd5b1415611c4a57600360003373ffffffffffffffffffffffffffffffffffffffff1673ffffffffffffffffffffffffffffffffffffffff16815260200190815260200160002060007f44414900000000000000000000000000000000000000000000000000000000008152602001908152602001600020548486611c099190612f30565b10611c49576040517f08c379a0000000000000000000000000000000000000000000000000000000008152600401611c4090612d5f565b60405180910390fd5b5b600180811115611c83577f4e487b7100000000000000000000000000000000000000000000000000000000600052602160045260246000fd5b836001811115611cbc577f4e487b7100000000000000000000000000000000000000000000000000000000600052602160045260246000fd5b1415611d5657600360003373ffffffffffffffffffffffffffffffffffffffff1673ffffffffffffffffffffffffffffffffffffffff168152602001908152602001600020600087815260200190815260200160002054851115611d55576040517f08c379a0000000000000000000000000000000000000000000000000000000008152600401611d4c90612d7f565b60405180910390fd5b5b6000600460008881526020019081526020016000206000856001811115611da6577f4e487b7100000000000000000000000000000000000000000000000000000000600052602160045260246000fd5b8152602001908152602001600020905080604051806101000160405280898152602001600554815260200188815260200187815260200160008152602001866001811115611e1d577f4e487b7100000000000000000000000000000000000000000000000000000000600052602160045260246000fd5b81526020014281526020013373ffffffffffffffffffffffffffffffffffffffff168152509080600181540180825580915050600190039060005260206000209060080201600090919091909150600082015181600001556020820151816001015560408201518160020155606082015181600301556080820151816004015560a08201518160050160006101000a81548160ff02191690836001811115611eee577f4e487b7100000000000000000000000000000000000000000000000000000000600052602160045260246000fd5b021790555060c0820151816006015560e08201518160070160006101000a81548173ffffffffffffffffffffffffffffffffffffffff021916908373ffffffffffffffffffffffffffffffffffffffff1602179055505050600080828054905011611f5a576000611f6c565b60018280549050611f6b9190612f8a565b5b90505b60008111156126205760006001811115611fb2577f4e487b7100000000000000000000000000000000000000000000000000000000600052602160045260246000fd5b856001811115611feb577f4e487b7100000000000000000000000000000000000000000000000000000000600052602160045260246000fd5b1480156120975750816001826120019190612f8a565b81548110612038577f4e487b7100000000000000000000000000000000000000000000000000000000600052603260045260246000fd5b906000526020600020906008020160030154828281548110612083577f4e487b7100000000000000000000000000000000000000000000000000000000600052603260045260246000fd5b906000526020600020906008020160030154105b156120a157612620565b6001808111156120da577f4e487b7100000000000000000000000000000000000000000000000000000000600052602160045260246000fd5b856001811115612113577f4e487b7100000000000000000000000000000000000000000000000000000000600052602160045260246000fd5b1480156121bf5750816001826121299190612f8a565b81548110612160577f4e487b7100000000000000000000000000000000000000000000000000000000600052603260045260246000fd5b9060005260206000209060080201600301548282815481106121ab577f4e487b7100000000000000000000000000000000000000000000000000000000600052603260045260246000fd5b906000526020600020906008020160030154105b156121c957612620565b6000826001836121d99190612f8a565b81548110612210577f4e487b7100000000000000000000000000000000000000000000000000000000600052603260045260246000fd5b90600052602060002090600802016040518061010001604052908160008201548152602001600182015481526020016002820154815260200160038201548152602001600482015481526020016005820160009054906101000a900460ff1660018111156122a7577f4e487b7100000000000000000000000000000000000000000000000000000000600052602160045260246000fd5b60018111156122df577f4e487b7100000000000000000000000000000000000000000000000000000000600052602160045260246000fd5b8152602001600682015481526020016007820160009054906101000a900473ffffffffffffffffffffffffffffffffffffffff1673ffffffffffffffffffffffffffffffffffffffff1673ffffffffffffffffffffffffffffffffffffffff1681525050905082828154811061237e577f4e487b7100000000000000000000000000000000000000000000000000000000600052603260045260246000fd5b90600052602060002090600802018360018461239a9190612f8a565b815481106123d1577f4e487b7100000000000000000000000000000000000000000000000000000000600052603260045260246000fd5b906000526020600020906008020160008201548160000155600182015481600101556002820154816002015560038201548160030155600482015481600401556005820160009054906101000a900460ff168160050160006101000a81548160ff0219169083600181111561246f577f4e487b7100000000000000000000000000000000000000000000000000000000600052602160045260246000fd5b0217905550600682015481600601556007820160009054906101000a900473ffffffffffffffffffffffffffffffffffffffff168160070160006101000a81548173ffffffffffffffffffffffffffffffffffffffff021916908373ffffffffffffffffffffffffffffffffffffffff16021790555090505080838381548110612522577f4e487b7100000000000000000000000000000000000000000000000000000000600052603260045260246000fd5b9060005260206000209060080201600082015181600001556020820151816001015560408201518160020155606082015181600301556080820151816004015560a08201518160050160006101000a81548160ff021916908360018111156125b3577f4e487b7100000000000000000000000000000000000000000000000000000000600052602160045260246000fd5b021790555060c0820151816006015560e08201518160070160006101000a81548173ffffffffffffffffffffffffffffffffffffffff021916908373ffffffffffffffffffffffffffffffffffffffff160217905550905050818061261790613035565b92505050611f6f565b600560008154809291906126339061305f565b91905055505050505050505050565b6004602052826000526040600020602052816000526040600020818154811061266a57600080fd5b906000526020600020906008020160009250925050508060000154908060010154908060020154908060030154908060040154908060050160009054906101000a900460ff16908060060154908060070160009054906101000a900473ffffffffffffffffffffffffffffffffffffffff16905088565b600260009054906101000a900473ffffffffffffffffffffffffffffffffffffffff1681565b6000813590506127168161311a565b92915050565b60008151905061272b81613131565b92915050565b60008135905061274081613148565b92915050565b6000813590506127558161315f565b92915050565b60008135905061276a8161316f565b92915050565b6000806040838503121561278357600080fd5b600061279185828601612707565b92505060206127a285828601612731565b9150509250929050565b6000806000606084860312156127c157600080fd5b60006127cf86828701612707565b93505060206127e086828701612731565b92505060406127f18682870161275b565b9150509250925092565b60006020828403121561280d57600080fd5b600061281b8482850161271c565b91505092915050565b60006020828403121561283657600080fd5b600061284484828501612731565b91505092915050565b6000806040838503121561286057600080fd5b600061286e85828601612731565b925050602061287f85828601612707565b9150509250929050565b60008060006060848603121561289e57600080fd5b60006128ac86828701612731565b93505060206128bd8682870161275b565b92505060406128ce86828701612746565b9150509250925092565b6000806000606084860312156128ed57600080fd5b60006128fb86828701612731565b935050602061290c8682870161275b565b925050604061291d8682870161275b565b9150509250925092565b6000806000806080858703121561293d57600080fd5b600061294b87828801612731565b945050602061295c8782880161275b565b935050604061296d8782880161275b565b925050606061297e87828801612746565b91505092959194509250565b60006020828403121561299c57600080fd5b60006129aa8482850161275b565b91505092915050565b600080604083850312156129c657600080fd5b60006129d48582860161275b565b92505060206129e585828601612731565b9150509250929050565b6129f881612fbe565b82525050565b612a0781612fdc565b82525050565b612a1681613023565b82525050565b6000612a29601c83612ec9565b91507f546f6b656e206973206e6f7420696e2074686520444558207965742e000000006000830152602082019050919050565b6000612a69600e83612ec9565b91507f4e6f7420656e6f756e67204441490000000000000000000000000000000000006000830152602082019050919050565b6000612aa9601083612ec9565b91507f4e6f7420656e6f75676820746f6b656e000000000000000000000000000000006000830152602082019050919050565b6000612ae9601683612ec9565b91507f42616c616e6365206973206e6f7420656e6f7567682e000000000000000000006000830152602082019050919050565b6000612b29601283612ec9565b91507f42616c616e636520697320746f6f206c6f7700000000000000000000000000006000830152602082019050919050565b6000612b69601c83612ec9565b91507f4f6e6c792061646d696e2063616e20616464206e657720746f6b656e000000006000830152602082019050919050565b6000612ba9600e83612ec9565b91507f4e6f7420656e6f756768204441490000000000000000000000000000000000006000830152602082019050919050565b6000612be9601183612ec9565b91507f43616e6e6f74207472616465204441492e0000000000000000000000000000006000830152602082019050919050565b612c2581613019565b82525050565b6000602082019050612c4060008301846129ef565b92915050565b6000606082019050612c5b60008301866129ef565b612c6860208301856129ef565b612c756040830184612c1c565b949350505050565b6000602082019050612c9260008301846129fe565b92915050565b6000604082019050612cad60008301856129fe565b612cba60208301846129ef565b9392505050565b600061010082019050612cd7600083018b6129fe565b612ce4602083018a612c1c565b612cf16040830189612c1c565b612cfe6060830188612c1c565b612d0b6080830187612c1c565b612d1860a0830186612a0d565b612d2560c0830185612c1c565b612d3260e08301846129ef565b9998505050505050505050565b60006020820190508181036000830152612d5881612a1c565b9050919050565b60006020820190508181036000830152612d7881612a5c565b9050919050565b60006020820190508181036000830152612d9881612a9c565b9050919050565b60006020820190508181036000830152612db881612adc565b9050919050565b60006020820190508181036000830152612dd881612b1c565b9050919050565b60006020820190508181036000830152612df881612b5c565b9050919050565b60006020820190508181036000830152612e1881612b9c565b9050919050565b60006020820190508181036000830152612e3881612bdc565b9050919050565b6000602082019050612e546000830184612c1c565b92915050565b600060e082019050612e6f600083018a612c1c565b612e7c60208301896129fe565b612e896040830188612c1c565b612e9660608301876129ef565b612ea360808301866129ef565b612eb060a0830185612c1c565b612ebd60c0830184612c1c565b98975050505050505050565b600082825260208201905092915050565b6000612ee582613019565b9150612ef083613019565b9250827fffffffffffffffffffffffffffffffffffffffffffffffffffffffffffffffff03821115612f2557612f246130a8565b5b828201905092915050565b6000612f3b82613019565b9150612f4683613019565b9250817fffffffffffffffffffffffffffffffffffffffffffffffffffffffffffffffff0483118215151615612f7f57612f7e6130a8565b5b828202905092915050565b6000612f9582613019565b9150612fa083613019565b925082821015612fb357612fb26130a8565b5b828203905092915050565b6000612fc982612ff9565b9050919050565b60008115159050919050565b6000819050919050565b6000819050612ff482613106565b919050565b600073ffffffffffffffffffffffffffffffffffffffff82169050919050565b6000819050919050565b600061302e82612fe6565b9050919050565b600061304082613019565b91506000821415613054576130536130a8565b5b600182039050919050565b600061306a82613019565b91507fffffffffffffffffffffffffffffffffffffffffffffffffffffffffffffffff82141561309d5761309c6130a8565b5b600182019050919050565b7f4e487b7100000000000000000000000000000000000000000000000000000000600052601160045260246000fd5b7f4e487b7100000000000000000000000000000000000000000000000000000000600052602160045260246000fd5b60028110613117576131166130d7565b5b50565b61312381612fbe565b811461312e57600080fd5b50565b61313a81612fd0565b811461314557600080fd5b50565b61315181612fdc565b811461315c57600080fd5b50565b6002811061316c57600080fd5b50565b61317881613019565b811461318357600080fd5b5056fea26469706673582212207196bc8f4bfe777743ce733302c9f7008dced5f42e9a188fc7b90d3ddf93e8d764736f6c63430008000033",
  "immutableReferences": {},
  "source": "// SPDX-License-Identifier: MIT\r\n\r\npragma solidity ^0.8.0;\r\n\r\n// Interface for contract\r\nimport \"@openzeppelin/contracts/token/ERC20/IERC20.sol\";\r\n\r\n/**\r\n * @title Dexs\r\n * @dev Decentralized Exchange\r\n */\r\ncontract Dex {\r\n    struct Token {\r\n        bytes32 ticker;\r\n        address tokenAddress;\r\n    }\r\n    // struct for store an order\r\n    struct Order {\r\n        bytes32 ticker;\r\n        uint256 id;\r\n        uint256 amount;\r\n        uint256 price;\r\n        uint256 filled;\r\n        Side side;\r\n        uint256 date;\r\n        address owner;\r\n    }\r\n    // enum for Buy or Sell\r\n    enum Side {\r\n        BUY,\r\n        SELL\r\n    }\r\n\r\n    mapping(bytes32 => Token) public tokens;\r\n    bytes32[] public tokenList;\r\n    address public admin;\r\n    // stores trader' balances\r\n    mapping(address => mapping(bytes32 => uint256)) public traderBalances;\r\n    // mapping to stores order book, pool of orders\r\n    mapping(bytes32 => mapping(uint256 => Order[])) public orderbook; // uint is reference for Side.BUY or Side.SELL\r\n    // pointer for Order book\r\n    uint256 public nextOrderId;\r\n    uint256 public nextTradeId;\r\n    // stores DAI ticker for consistent and save gas cause it only runs when compile\r\n    bytes32 constant DAI = bytes32(\"DAI\");\r\n\r\n    // event for a new trade\r\n    event NewTrade(\r\n        uint256 tradeId,\r\n        bytes32 ticker,\r\n        uint256 amount,\r\n        address seller,\r\n        address buyer,\r\n        uint256 price,\r\n        uint256 date\r\n    );\r\n\r\n    constructor() {\r\n        admin = msg.sender;\r\n    }\r\n    // modifier to add new token to the exchange\r\n    modifier onlyAdmin() {\r\n        require(msg.sender == admin, \"Only admin can add new token\");\r\n        _;\r\n    }\r\n    // modifier to check a token is existed in Dex\r\n    modifier tokenExists(bytes32 _ticker) {\r\n        require(\r\n            tokens[_ticker].tokenAddress != address(0),\r\n            \"Token is not in the DEX yet.\"\r\n        );\r\n        _;\r\n    }\r\n    // modifier to check the trade token is not DAI\r\n    modifier isNotDAI(bytes32 _ticker) {\r\n        require(_ticker != bytes32(\"DAI\"), \"Cannot trade DAI.\");\r\n        _;\r\n    }\r\n    /**\r\n     * @dev Add a token to Dex\r\n     */\r\n    function addToken(bytes32 _ticker, address _tokenAddress)\r\n        external\r\n        onlyAdmin\r\n    {\r\n        tokens[_ticker] = Token(_ticker, _tokenAddress);\r\n        tokenList.push(_ticker);\r\n    }\r\n    /**\r\n     * @dev Deposit a balance\r\n     */\r\n    function deposit(uint256 _amount, bytes32 _ticker)\r\n        external\r\n        tokenExists(_ticker)\r\n    {\r\n        IERC20(tokens[_ticker].tokenAddress).transferFrom(\r\n            msg.sender,\r\n            address(this),\r\n            _amount\r\n        );\r\n        traderBalances[msg.sender][_ticker] += _amount;\r\n    }\r\n    /**\r\n     * @dev Withdraw a balance\r\n     */\r\n    function withdraw(\r\n        address _to,\r\n        bytes32 _ticker,\r\n        uint256 _amount\r\n        ) \r\n        external \r\n        tokenExists(_ticker) {\r\n        require(\r\n            traderBalances[msg.sender][_ticker] >= _amount,\r\n            \"Balance is too low\"\r\n        );\r\n        IERC20(tokens[_ticker].tokenAddress).transferFrom(\r\n            address(this),\r\n            _to,\r\n            _amount\r\n        );\r\n        traderBalances[msg.sender][_ticker] -= _amount;\r\n    }\r\n    /**\r\n     * @dev Create a limit order\r\n     */\r\n    function createLimitOrder(\r\n        bytes32 _ticker,\r\n        uint256 _amount,\r\n        uint256 _price,\r\n        Side _side\r\n        ) \r\n        external \r\n        isNotDAI(_ticker) \r\n        tokenExists(_ticker) {\r\n        // Define a order is SELL or BUY\r\n        if (_side == Side.BUY) {\r\n            // Check the balance if SELL or BUY\r\n            require(\r\n                (_amount * _price) < traderBalances[msg.sender][DAI],\r\n                \"Not enoung DAI\"\r\n            );\r\n        }\r\n        if (_side == Side.SELL) {\r\n            // Check the balance if SELL or BUY\r\n            require(\r\n                _amount <= traderBalances[msg.sender][_ticker],\r\n                \"Not enough token\"\r\n            );\r\n        }\r\n        // Add the order to orderbook\r\n        Order[] storage orders = orderbook[_ticker][uint256(_side)];\r\n        orders.push(\r\n            Order(\r\n                _ticker,\r\n                nextOrderId,\r\n                _amount,\r\n                _price,\r\n                0,\r\n                _side,\r\n                block.timestamp,\r\n                msg.sender\r\n            )\r\n        );\r\n        // Sort the orderbook as order of best price\r\n        uint256 i = orders.length > 0 ? (orders.length - 1) : 0;\r\n        while (i > 0) {\r\n            if (_side == Side.BUY && orders[i].price < orders[i - 1].price) {\r\n                break;\r\n            }\r\n            if (_side == Side.SELL && orders[i].price < orders[i - 1].price) {\r\n                break;\r\n            }\r\n            Order memory order = orders[i - 1];\r\n            orders[i - 1] = orders[i];\r\n            orders[i] = order;\r\n            i--;\r\n        }\r\n        nextOrderId++;\r\n    }\r\n    /**\r\n     * @dev Create a market order\r\n     */\r\n    function createMarketOrder(\r\n        bytes32 _ticker,\r\n        uint256 _amount,\r\n        Side _side\r\n        ) \r\n        external \r\n        isNotDAI(_ticker) \r\n        tokenExists(_ticker) {\r\n        if (_side == Side.SELL) {\r\n            require(\r\n                traderBalances[msg.sender][_ticker] >= _amount,\r\n                \"Balance is not enough.\"\r\n            );\r\n        }\r\n        // Keep track of the _amount of this order to be filled\r\n        uint256 remaining = _amount;\r\n        // Get the first order in orderBook\r\n        uint256 i;\r\n        Order[] storage orders = orderbook[_ticker][\r\n            uint256(_side == Side.BUY ? Side.SELL : Side.BUY)\r\n        ];\r\n\r\n        while (i < orders.length - 1 && remaining > 0) {\r\n            uint256 available = orders[i].amount - orders[i].filled;\r\n            uint256 matched = remaining > available ? available : remaining;\r\n\r\n            remaining -= matched;\r\n            orders[i].filled += matched;\r\n            emit NewTrade(\r\n                nextTradeId,\r\n                _ticker,\r\n                available,\r\n                msg.sender,\r\n                orders[i].owner,\r\n                orders[i].price,\r\n                block.timestamp\r\n            );\r\n\r\n            if (_side == Side.BUY) {\r\n                require(\r\n                    traderBalances[msg.sender][DAI] >=\r\n                        matched * orders[i].price,\r\n                    \"Not enough DAI\"\r\n                );\r\n                traderBalances[msg.sender][_ticker] += matched;\r\n                traderBalances[msg.sender][DAI] -= matched * orders[i].price;\r\n                traderBalances[orders[i].owner][_ticker] -= matched;\r\n                traderBalances[orders[i].owner][DAI] +=\r\n                    matched *\r\n                    orders[i].price;\r\n            }\r\n            if (_side == Side.SELL) {\r\n                traderBalances[msg.sender][_ticker] -= matched;\r\n                traderBalances[msg.sender][DAI] += matched * orders[i].price;\r\n                traderBalances[orders[i].owner][_ticker] += matched;\r\n                traderBalances[orders[i].owner][DAI] -=\r\n                    matched *\r\n                    orders[i].price;\r\n            }\r\n            i++;\r\n            nextTradeId++;\r\n        }\r\n\r\n        i = 0;\r\n        // Remove the all filled orders in the top of orderBook\r\n        while(i < orders.length && orders[i].filled == orders[i].amount) {\r\n            for (uint j = i; j < orders.length - 1; j++) {\r\n                orders[j] = orders[j+1];\r\n            }\r\n            orders.pop();\r\n            i++;\r\n        }\r\n    }\r\n}\r\n",
  "sourcePath": "C:\\Users\\quy.nguyen\\blockchain_app\\dex\\contracts\\Dex.sol",
  "compiler": {
    "name": "solc",
    "version": "0.8.0+commit.c7dfd78e.Emscripten.clang"
  },
  "schemaVersion": "3.4.4",
  "updatedAt": "2022-04-11T21:34:40.202Z",
  "devdoc": {
    "details": "Decentralized Exchange",
    "kind": "dev",
    "methods": {
      "addToken(bytes32,address)": {
        "details": "Add a token to Dex"
      },
      "createLimitOrder(bytes32,uint256,uint256,uint8)": {
        "details": "Create a limit order"
      },
      "createMarketOrder(bytes32,uint256,uint8)": {
        "details": "Create a market order"
      },
      "deposit(uint256,bytes32)": {
        "details": "Deposit a balance"
      },
      "withdraw(address,bytes32,uint256)": {
        "details": "Withdraw a balance"
      }
    },
    "title": "Dexs",
    "version": 1
  },
  "userdoc": {
    "kind": "user",
    "methods": {},
    "version": 1
  }
}